{
  "address": "0xC87F25f942047204627A82f3B216Ad186a9d7971",
  "abi": [
    {
      "inputs": [],
      "stateMutability": "nonpayable",
      "type": "constructor"
    },
    {
      "anonymous": false,
      "inputs": [
        {
          "indexed": false,
          "internalType": "uint256",
          "name": "id",
          "type": "uint256"
        },
        {
          "indexed": false,
          "internalType": "string",
          "name": "hash",
          "type": "string"
        },
        {
          "indexed": false,
          "internalType": "string",
          "name": "title",
          "type": "string"
        },
        {
          "indexed": false,
          "internalType": "string",
          "name": "issue",
          "type": "string"
        },
        {
          "indexed": false,
          "internalType": "int256",
          "name": "likes",
          "type": "int256"
        },
        {
          "indexed": false,
          "internalType": "address",
          "name": "author",
          "type": "address"
        }
      ],
      "name": "VideoUploaded",
      "type": "event"
    },
    {
      "inputs": [
        {
          "internalType": "uint256",
          "name": "id",
          "type": "uint256"
        },
        {
          "internalType": "int256",
          "name": "_likes",
          "type": "int256"
        }
      ],
      "name": "likeVideo",
      "outputs": [],
      "stateMutability": "nonpayable",
      "type": "function"
    },
    {
      "inputs": [],
      "name": "name",
      "outputs": [
        {
          "internalType": "string",
          "name": "",
          "type": "string"
        }
      ],
      "stateMutability": "view",
      "type": "function"
    },
    {
      "inputs": [],
      "name": "totalVideos",
      "outputs": [
        {
          "internalType": "uint256",
          "name": "",
          "type": "uint256"
        }
      ],
      "stateMutability": "nonpayable",
      "type": "function"
    },
    {
      "inputs": [
        {
          "internalType": "string",
          "name": "_videoHash",
          "type": "string"
        },
        {
          "internalType": "string",
          "name": "_title",
          "type": "string"
        },
        {
          "internalType": "string",
          "name": "_issue",
          "type": "string"
        }
      ],
      "name": "uploadVideo",
      "outputs": [],
      "stateMutability": "nonpayable",
      "type": "function"
    },
    {
      "inputs": [],
      "name": "videoCount",
      "outputs": [
        {
          "internalType": "uint256",
          "name": "",
          "type": "uint256"
        }
      ],
      "stateMutability": "view",
      "type": "function"
    },
    {
      "inputs": [
        {
          "internalType": "uint256",
          "name": "",
          "type": "uint256"
        }
      ],
      "name": "videos",
      "outputs": [
        {
          "internalType": "uint256",
          "name": "id",
          "type": "uint256"
        },
        {
          "internalType": "string",
          "name": "hash",
          "type": "string"
        },
        {
          "internalType": "string",
          "name": "title",
          "type": "string"
        },
        {
          "internalType": "string",
          "name": "issue",
          "type": "string"
        },
        {
          "internalType": "int256",
          "name": "likes",
          "type": "int256"
        },
        {
          "internalType": "address",
          "name": "author",
          "type": "address"
        }
      ],
      "stateMutability": "view",
      "type": "function"
    }
  ],
  "transactionHash": "0x42e313f42534f88ffa0b79f6558356ef8e27ab38faab17997918de8517b60181",
  "args": [],
  "numDeployments": 1,
  "solcInputHash": "6573325a8bf99438ce8ddf2fcae58166",
  "bytecode": "0x6080604052600080556040518060400160405280600881526020017f436f6e747261637400000000000000000000000000000000000000000000000081525060019080519060200190620000559291906200006a565b503480156200006357600080fd5b506200017f565b82805462000078906200011a565b90600052602060002090601f0160209004810192826200009c5760008555620000e8565b82601f10620000b757805160ff1916838001178555620000e8565b82800160010185558215620000e8579182015b82811115620000e7578251825591602001919060010190620000ca565b5b509050620000f79190620000fb565b5090565b5b8082111562000116576000816000905550600101620000fc565b5090565b600060028204905060018216806200013357607f821691505b602082108114156200014a576200014962000150565b5b50919050565b7f4e487b7100000000000000000000000000000000000000000000000000000000600052602260045260246000fd5b610c7a806200018f6000396000f3fe608060405234801561001057600080fd5b50600436106100625760003560e01c806306fdde03146100675780634875e9fd14610085578063c61b5f4c146100a1578063e230a208146100bf578063e6821bf5146100dd578063ebc7d5e114610112575b600080fd5b61006f61012e565b60405161007c9190610829565b60405180910390f35b61009f600480360381019061009a91906106b8565b6101bc565b005b6100a9610355565b6040516100b6919061084b565b60405180910390f35b6100c761035b565b6040516100d4919061084b565b60405180910390f35b6100f760048036038101906100f2919061074f565b610364565b60405161010996959493929190610866565b60405180910390f35b61012c60048036038101906101279190610778565b610558565b005b6001805461013b90610afd565b80601f016020809104026020016040519081016040528092919081815260200182805461016790610afd565b80156101b45780601f10610189576101008083540402835291602001916101b4565b820191906000526020600020905b81548152906001019060200180831161019757829003601f168201915b505050505081565b60008351116101ca57600080fd5b60008251116101d857600080fd5b60008151116101e657600080fd5b6000808154809291906101f890610b2f565b91905055506040518060c001604052806000548152602001848152602001838152602001828152602001600081526020013373ffffffffffffffffffffffffffffffffffffffff16815250600260008054815260200190815260200160002060008201518160000155602082015181600101908051906020019061027d929190610583565b50604082015181600201908051906020019061029a929190610583565b5060608201518160030190805190602001906102b7929190610583565b506080820151816004015560a08201518160050160006101000a81548173ffffffffffffffffffffffffffffffffffffffff021916908373ffffffffffffffffffffffffffffffffffffffff1602179055509050507fbd220a36eabb33bf9f4da64559323f45aa9a9d3e85f8c14f7a5403ec42bc9103600054848484600033604051610348969594939291906108dc565b60405180910390a1505050565b60005481565b60008054905090565b600260205280600052604060002060009150905080600001549080600101805461038d90610afd565b80601f01602080910402602001604051908101604052809291908181526020018280546103b990610afd565b80156104065780601f106103db57610100808354040283529160200191610406565b820191906000526020600020905b8154815290600101906020018083116103e957829003601f168201915b50505050509080600201805461041b90610afd565b80601f016020809104026020016040519081016040528092919081815260200182805461044790610afd565b80156104945780601f1061046957610100808354040283529160200191610494565b820191906000526020600020905b81548152906001019060200180831161047757829003601f168201915b5050505050908060030180546104a990610afd565b80601f01602080910402602001604051908101604052809291908181526020018280546104d590610afd565b80156105225780601f106104f757610100808354040283529160200191610522565b820191906000526020600020905b81548152906001019060200180831161050557829003601f168201915b5050505050908060040154908060050160009054906101000a900473ffffffffffffffffffffffffffffffffffffffff16905086565b60018161056591906109cf565b60026000848152602001908152602001600020600401819055505050565b82805461058f90610afd565b90600052602060002090601f0160209004810192826105b157600085556105f8565b82601f106105ca57805160ff19168380011785556105f8565b828001600101855582156105f8579182015b828111156105f75782518255916020019190600101906105dc565b5b5090506106059190610609565b5090565b5b8082111561062257600081600090555060010161060a565b5090565b600061063961063484610983565b610952565b90508281526020810184848401111561065157600080fd5b61065c848285610abb565b509392505050565b60008135905061067381610c16565b92915050565b600082601f83011261068a57600080fd5b813561069a848260208601610626565b91505092915050565b6000813590506106b281610c2d565b92915050565b6000806000606084860312156106cd57600080fd5b600084013567ffffffffffffffff8111156106e757600080fd5b6106f386828701610679565b935050602084013567ffffffffffffffff81111561071057600080fd5b61071c86828701610679565b925050604084013567ffffffffffffffff81111561073957600080fd5b61074586828701610679565b9150509250925092565b60006020828403121561076157600080fd5b600061076f848285016106a3565b91505092915050565b6000806040838503121561078b57600080fd5b6000610799858286016106a3565b92505060206107aa85828601610664565b9150509250929050565b6107bd81610a63565b82525050565b6107cc81610a75565b82525050565b6107db81610aa9565b82525050565b60006107ec826109b3565b6107f681856109be565b9350610806818560208601610aca565b61080f81610c05565b840191505092915050565b61082381610a9f565b82525050565b6000602082019050818103600083015261084381846107e1565b905092915050565b6000602082019050610860600083018461081a565b92915050565b600060c08201905061087b600083018961081a565b818103602083015261088d81886107e1565b905081810360408301526108a181876107e1565b905081810360608301526108b581866107e1565b90506108c460808301856107c3565b6108d160a08301846107b4565b979650505050505050565b600060c0820190506108f1600083018961081a565b818103602083015261090381886107e1565b9050818103604083015261091781876107e1565b9050818103606083015261092b81866107e1565b905061093a60808301856107d2565b61094760a08301846107b4565b979650505050505050565b6000604051905081810181811067ffffffffffffffff8211171561097957610978610bd6565b5b8060405250919050565b600067ffffffffffffffff82111561099e5761099d610bd6565b5b601f19601f8301169050602081019050919050565b600081519050919050565b600082825260208201905092915050565b60006109da82610a75565b91506109e583610a75565b9250817f7fffffffffffffffffffffffffffffffffffffffffffffffffffffffffffffff03831360008312151615610a2057610a1f610b78565b5b817f8000000000000000000000000000000000000000000000000000000000000000038312600083121615610a5857610a57610b78565b5b828201905092915050565b6000610a6e82610a7f565b9050919050565b6000819050919050565b600073ffffffffffffffffffffffffffffffffffffffff82169050919050565b6000819050919050565b6000610ab482610a75565b9050919050565b82818337600083830152505050565b60005b83811015610ae8578082015181840152602081019050610acd565b83811115610af7576000848401525b50505050565b60006002820490506001821680610b1557607f821691505b60208210811415610b2957610b28610ba7565b5b50919050565b6000610b3a82610a9f565b91507fffffffffffffffffffffffffffffffffffffffffffffffffffffffffffffffff821415610b6d57610b6c610b78565b5b600182019050919050565b7f4e487b7100000000000000000000000000000000000000000000000000000000600052601160045260246000fd5b7f4e487b7100000000000000000000000000000000000000000000000000000000600052602260045260246000fd5b7f4e487b7100000000000000000000000000000000000000000000000000000000600052604160045260246000fd5b6000601f19601f8301169050919050565b610c1f81610a75565b8114610c2a57600080fd5b50565b610c3681610a9f565b8114610c4157600080fd5b5056fea264697066735822122075d8b7c86309a3a005bbfdcc17c071618502d96aef0eca4b7d83aa6aa45fe02664736f6c63430008000033",
  "devdoc": {
    "kind": "dev",
    "methods": {},
    "version": 1
  },
  "userdoc": {
    "kind": "user",
    "methods": {},
    "version": 1
  },
  "storageLayout": {
    "storage": [
      {
        "astId": 1733,
        "contract": "contracts/Contract.sol:Contract",
        "label": "videoCount",
        "offset": 0,
        "slot": "0",
        "type": "t_uint256"
      },
      {
        "astId": 1736,
        "contract": "contracts/Contract.sol:Contract",
        "label": "name",
        "offset": 0,
        "slot": "1",
        "type": "t_string_storage"
      },
      {
        "astId": 1741,
        "contract": "contracts/Contract.sol:Contract",
        "label": "videos",
        "offset": 0,
        "slot": "2",
        "type": "t_mapping(t_uint256,t_struct(Video)1754_storage)"
      }
    ],
    "types": {
      "t_address": {
        "encoding": "inplace",
        "label": "address",
        "numberOfBytes": "20"
      },
      "t_int256": {
        "encoding": "inplace",
        "label": "int256",
        "numberOfBytes": "32"
      },
      "t_mapping(t_uint256,t_struct(Video)1754_storage)": {
        "encoding": "mapping",
        "key": "t_uint256",
        "label": "mapping(uint256 => struct Contract.Video)",
        "numberOfBytes": "32",
        "value": "t_struct(Video)1754_storage"
      },
      "t_string_storage": {
        "encoding": "bytes",
        "label": "string",
        "numberOfBytes": "32"
      },
      "t_struct(Video)1754_storage": {
        "encoding": "inplace",
        "label": "struct Contract.Video",
        "members": [
          {
            "astId": 1743,
            "contract": "contracts/Contract.sol:Contract",
            "label": "id",
            "offset": 0,
            "slot": "0",
            "type": "t_uint256"
          },
          {
            "astId": 1745,
            "contract": "contracts/Contract.sol:Contract",
            "label": "hash",
            "offset": 0,
            "slot": "1",
            "type": "t_string_storage"
          },
          {
            "astId": 1747,
            "contract": "contracts/Contract.sol:Contract",
            "label": "title",
            "offset": 0,
            "slot": "2",
            "type": "t_string_storage"
          },
          {
            "astId": 1749,
            "contract": "contracts/Contract.sol:Contract",
            "label": "issue",
            "offset": 0,
            "slot": "3",
            "type": "t_string_storage"
          },
          {
            "astId": 1751,
            "contract": "contracts/Contract.sol:Contract",
            "label": "likes",
            "offset": 0,
            "slot": "4",
            "type": "t_int256"
          },
          {
            "astId": 1753,
            "contract": "contracts/Contract.sol:Contract",
            "label": "author",
            "offset": 0,
            "slot": "5",
            "type": "t_address"
          }
        ],
        "numberOfBytes": "192"
      },
      "t_uint256": {
        "encoding": "inplace",
        "label": "uint256",
        "numberOfBytes": "32"
      }
    }
  }
}