{
  "contractName": "Contract",
  "abi": [
    {
      "inputs": [],
      "stateMutability": "nonpayable",
      "type": "constructor"
    },
    {
      "anonymous": false,
      "inputs": [
        {
          "indexed": false,
          "internalType": "uint256",
          "name": "id",
          "type": "uint256"
        },
        {
          "indexed": false,
          "internalType": "string",
          "name": "hash",
          "type": "string"
        },
        {
          "indexed": false,
          "internalType": "string",
          "name": "title",
          "type": "string"
        },
        {
          "indexed": false,
          "internalType": "string",
          "name": "issue",
          "type": "string"
        },
        {
          "indexed": false,
          "internalType": "int256",
          "name": "likes",
          "type": "int256"
        },
        {
          "indexed": false,
          "internalType": "address",
          "name": "author",
          "type": "address"
        }
      ],
      "name": "VideoUploaded",
      "type": "event"
    },
    {
      "inputs": [],
      "name": "name",
      "outputs": [
        {
          "internalType": "string",
          "name": "",
          "type": "string"
        }
      ],
      "stateMutability": "view",
      "type": "function",
      "constant": true
    },
    {
      "inputs": [],
      "name": "videoCount",
      "outputs": [
        {
          "internalType": "uint256",
          "name": "",
          "type": "uint256"
        }
      ],
      "stateMutability": "view",
      "type": "function",
      "constant": true
    },
    {
      "inputs": [
        {
          "internalType": "uint256",
          "name": "",
          "type": "uint256"
        }
      ],
      "name": "videos",
      "outputs": [
        {
          "internalType": "uint256",
          "name": "id",
          "type": "uint256"
        },
        {
          "internalType": "string",
          "name": "hash",
          "type": "string"
        },
        {
          "internalType": "string",
          "name": "title",
          "type": "string"
        },
        {
          "internalType": "string",
          "name": "issue",
          "type": "string"
        },
        {
          "internalType": "int256",
          "name": "likes",
          "type": "int256"
        },
        {
          "internalType": "address",
          "name": "author",
          "type": "address"
        }
      ],
      "stateMutability": "view",
      "type": "function",
      "constant": true
    },
    {
      "inputs": [
        {
          "internalType": "string",
          "name": "_videoHash",
          "type": "string"
        },
        {
          "internalType": "string",
          "name": "_title",
          "type": "string"
        },
        {
          "internalType": "string",
          "name": "_issue",
          "type": "string"
        }
      ],
      "name": "uploadVideo",
      "outputs": [],
      "stateMutability": "nonpayable",
      "type": "function"
    },
    {
      "inputs": [
        {
          "internalType": "uint256",
          "name": "id",
          "type": "uint256"
        },
        {
          "internalType": "int256",
          "name": "_likes",
          "type": "int256"
        }
      ],
      "name": "likeVideo",
      "outputs": [],
      "stateMutability": "nonpayable",
      "type": "function"
    }
  ],
  "bytecode": "0x6080604052600080556040518060400160405280600881526020017f436f6e747261637400000000000000000000000000000000000000000000000081525060019080519060200190620000559291906200006a565b503480156200006357600080fd5b506200017f565b828054620000789062000149565b90600052602060002090601f0160209004810192826200009c5760008555620000e8565b82601f10620000b757805160ff1916838001178555620000e8565b82800160010185558215620000e8579182015b82811115620000e7578251825591602001919060010190620000ca565b5b509050620000f79190620000fb565b5090565b5b8082111562000116576000816000905550600101620000fc565b5090565b7f4e487b7100000000000000000000000000000000000000000000000000000000600052602260045260246000fd5b600060028204905060018216806200016257607f821691505b602082108114156200017957620001786200011a565b5b50919050565b610cc6806200018f6000396000f3fe608060405234801561001057600080fd5b50600436106100575760003560e01c806306fdde031461005c5780634875e9fd1461007a578063c61b5f4c14610096578063e6821bf5146100b4578063ebc7d5e1146100e9575b600080fd5b610064610105565b604051610071919061068d565b60405180910390f35b610094600480360381019061008f91906107f8565b610193565b005b61009e61032c565b6040516100ab91906108b8565b60405180910390f35b6100ce60048036038101906100c991906108ff565b610332565b6040516100e096959493929190610986565b60405180910390f35b61010360048036038101906100fe9190610a28565b610526565b005b6001805461011290610a97565b80601f016020809104026020016040519081016040528092919081815260200182805461013e90610a97565b801561018b5780601f106101605761010080835404028352916020019161018b565b820191906000526020600020905b81548152906001019060200180831161016e57829003601f168201915b505050505081565b60008351116101a157600080fd5b60008251116101af57600080fd5b60008151116101bd57600080fd5b6000808154809291906101cf90610af8565b91905055506040518060c001604052806000548152602001848152602001838152602001828152602001600081526020013373ffffffffffffffffffffffffffffffffffffffff168152506002600080548152602001908152602001600020600082015181600001556020820151816001019080519060200190610254929190610551565b506040820151816002019080519060200190610271929190610551565b50606082015181600301908051906020019061028e929190610551565b506080820151816004015560a08201518160050160006101000a81548173ffffffffffffffffffffffffffffffffffffffff021916908373ffffffffffffffffffffffffffffffffffffffff1602179055509050507fbd220a36eabb33bf9f4da64559323f45aa9a9d3e85f8c14f7a5403ec42bc910360005484848460003360405161031f96959493929190610b86565b60405180910390a1505050565b60005481565b600260205280600052604060002060009150905080600001549080600101805461035b90610a97565b80601f016020809104026020016040519081016040528092919081815260200182805461038790610a97565b80156103d45780601f106103a9576101008083540402835291602001916103d4565b820191906000526020600020905b8154815290600101906020018083116103b757829003601f168201915b5050505050908060020180546103e990610a97565b80601f016020809104026020016040519081016040528092919081815260200182805461041590610a97565b80156104625780601f1061043757610100808354040283529160200191610462565b820191906000526020600020905b81548152906001019060200180831161044557829003601f168201915b50505050509080600301805461047790610a97565b80601f01602080910402602001604051908101604052809291908181526020018280546104a390610a97565b80156104f05780601f106104c5576101008083540402835291602001916104f0565b820191906000526020600020905b8154815290600101906020018083116104d357829003601f168201915b5050505050908060040154908060050160009054906101000a900473ffffffffffffffffffffffffffffffffffffffff16905086565b6001816105339190610bfc565b60026000848152602001908152602001600020600401819055505050565b82805461055d90610a97565b90600052602060002090601f01602090048101928261057f57600085556105c6565b82601f1061059857805160ff19168380011785556105c6565b828001600101855582156105c6579182015b828111156105c55782518255916020019190600101906105aa565b5b5090506105d391906105d7565b5090565b5b808211156105f05760008160009055506001016105d8565b5090565b600081519050919050565b600082825260208201905092915050565b60005b8381101561062e578082015181840152602081019050610613565b8381111561063d576000848401525b50505050565b6000601f19601f8301169050919050565b600061065f826105f4565b61066981856105ff565b9350610679818560208601610610565b61068281610643565b840191505092915050565b600060208201905081810360008301526106a78184610654565b905092915050565b6000604051905090565b600080fd5b600080fd5b600080fd5b600080fd5b7f4e487b7100000000000000000000000000000000000000000000000000000000600052604160045260246000fd5b61070582610643565b810181811067ffffffffffffffff82111715610724576107236106cd565b5b80604052505050565b60006107376106af565b905061074382826106fc565b919050565b600067ffffffffffffffff821115610763576107626106cd565b5b61076c82610643565b9050602081019050919050565b82818337600083830152505050565b600061079b61079684610748565b61072d565b9050828152602081018484840111156107b7576107b66106c8565b5b6107c2848285610779565b509392505050565b600082601f8301126107df576107de6106c3565b5b81356107ef848260208601610788565b91505092915050565b600080600060608486031215610811576108106106b9565b5b600084013567ffffffffffffffff81111561082f5761082e6106be565b5b61083b868287016107ca565b935050602084013567ffffffffffffffff81111561085c5761085b6106be565b5b610868868287016107ca565b925050604084013567ffffffffffffffff811115610889576108886106be565b5b610895868287016107ca565b9150509250925092565b6000819050919050565b6108b28161089f565b82525050565b60006020820190506108cd60008301846108a9565b92915050565b6108dc8161089f565b81146108e757600080fd5b50565b6000813590506108f9816108d3565b92915050565b600060208284031215610915576109146106b9565b5b6000610923848285016108ea565b91505092915050565b6000819050919050565b61093f8161092c565b82525050565b600073ffffffffffffffffffffffffffffffffffffffff82169050919050565b600061097082610945565b9050919050565b61098081610965565b82525050565b600060c08201905061099b60008301896108a9565b81810360208301526109ad8188610654565b905081810360408301526109c18187610654565b905081810360608301526109d58186610654565b90506109e46080830185610936565b6109f160a0830184610977565b979650505050505050565b610a058161092c565b8114610a1057600080fd5b50565b600081359050610a22816109fc565b92915050565b60008060408385031215610a3f57610a3e6106b9565b5b6000610a4d858286016108ea565b9250506020610a5e85828601610a13565b9150509250929050565b7f4e487b7100000000000000000000000000000000000000000000000000000000600052602260045260246000fd5b60006002820490506001821680610aaf57607f821691505b60208210811415610ac357610ac2610a68565b5b50919050565b7f4e487b7100000000000000000000000000000000000000000000000000000000600052601160045260246000fd5b6000610b038261089f565b91507fffffffffffffffffffffffffffffffffffffffffffffffffffffffffffffffff821415610b3657610b35610ac9565b5b600182019050919050565b6000819050919050565b6000819050919050565b6000610b70610b6b610b6684610b41565b610b4b565b61092c565b9050919050565b610b8081610b55565b82525050565b600060c082019050610b9b60008301896108a9565b8181036020830152610bad8188610654565b90508181036040830152610bc18187610654565b90508181036060830152610bd58186610654565b9050610be46080830185610b77565b610bf160a0830184610977565b979650505050505050565b6000610c078261092c565b9150610c128361092c565b9250817f7fffffffffffffffffffffffffffffffffffffffffffffffffffffffffffffff03831360008312151615610c4d57610c4c610ac9565b5b817f8000000000000000000000000000000000000000000000000000000000000000038312600083121615610c8557610c84610ac9565b5b82820190509291505056fea2646970667358221220dbde35b57aebbed3ea05ed849341d661386f8d65401a7ffad98aef18fea46a6a64736f6c634300080b0033",
  "immutableReferences": {},
  "source": "pragma solidity ^0.8.0;\n\ncontract Contract {\n  uint public videoCount = 0;\n  string public name = \"Contract\";\n  mapping(uint => Video) public videos;\n\n  struct Video {\n    uint id;\n    string hash;\n    string title;\n    string issue;\n    int likes;\n    address author;\n  }\n\n  event VideoUploaded(\n    uint id,\n    string hash,\n    string title,\n    string issue,\n    int likes,\n    address author\n  );\n\n  constructor() public {\n\n  }\n\n  function uploadVideo(string memory _videoHash, string memory _title, string memory _issue) public {\n    require(bytes(_videoHash).length > 0);\n    require(bytes(_title).length > 0);\n    require(bytes(_issue).length > 0);\n    videoCount++;\n    videos[videoCount] = Video(videoCount, _videoHash, _title, _issue, 0, msg.sender);\n    emit VideoUploaded(videoCount, _videoHash, _title, _issue, 0, msg.sender);\n  }\n\n  function likeVideo(uint id, int _likes) public {\n    videos[id].likes = _likes + 1;\n  }\n}\n",
  "sourcePath": "/Users/antarikshverma/Dev/metis-hackathon/contracts/contracts/Contract.sol",
  "compiler": {
    "name": "solc",
    "version": "0.8.11+commit.d7f03943.Emscripten.clang"
  },
  "schemaVersion": "3.4.4",
  "updatedAt": "2021-12-29T09:51:06.148Z",
  "networkType": "ethereum",
  "devdoc": {
    "kind": "dev",
    "methods": {},
    "version": 1
  },
  "userdoc": {
    "kind": "user",
    "methods": {},
    "version": 1
  }
}