{
  "contractName": "NFT",
  "abi": [
    {
      "inputs": [],
      "stateMutability": "nonpayable",
      "type": "constructor"
    },
    {
      "anonymous": false,
      "inputs": [
        {
          "indexed": true,
          "internalType": "address",
          "name": "owner",
          "type": "address"
        },
        {
          "indexed": true,
          "internalType": "address",
          "name": "approved",
          "type": "address"
        },
        {
          "indexed": true,
          "internalType": "uint256",
          "name": "tokenId",
          "type": "uint256"
        }
      ],
      "name": "Approval",
      "type": "event"
    },
    {
      "anonymous": false,
      "inputs": [
        {
          "indexed": true,
          "internalType": "address",
          "name": "owner",
          "type": "address"
        },
        {
          "indexed": true,
          "internalType": "address",
          "name": "operator",
          "type": "address"
        },
        {
          "indexed": false,
          "internalType": "bool",
          "name": "approved",
          "type": "bool"
        }
      ],
      "name": "ApprovalForAll",
      "type": "event"
    },
    {
      "anonymous": false,
      "inputs": [
        {
          "indexed": true,
          "internalType": "address",
          "name": "previousOwner",
          "type": "address"
        },
        {
          "indexed": true,
          "internalType": "address",
          "name": "newOwner",
          "type": "address"
        }
      ],
      "name": "OwnershipTransferred",
      "type": "event"
    },
    {
      "anonymous": false,
      "inputs": [
        {
          "indexed": true,
          "internalType": "address",
          "name": "from",
          "type": "address"
        },
        {
          "indexed": true,
          "internalType": "address",
          "name": "to",
          "type": "address"
        },
        {
          "indexed": true,
          "internalType": "uint256",
          "name": "tokenId",
          "type": "uint256"
        }
      ],
      "name": "Transfer",
      "type": "event"
    },
    {
      "inputs": [
        {
          "internalType": "address",
          "name": "to",
          "type": "address"
        },
        {
          "internalType": "uint256",
          "name": "tokenId",
          "type": "uint256"
        }
      ],
      "name": "approve",
      "outputs": [],
      "stateMutability": "nonpayable",
      "type": "function"
    },
    {
      "inputs": [
        {
          "internalType": "address",
          "name": "owner",
          "type": "address"
        }
      ],
      "name": "balanceOf",
      "outputs": [
        {
          "internalType": "uint256",
          "name": "",
          "type": "uint256"
        }
      ],
      "stateMutability": "view",
      "type": "function",
      "constant": true
    },
    {
      "inputs": [
        {
          "internalType": "uint256",
          "name": "tokenId",
          "type": "uint256"
        }
      ],
      "name": "getApproved",
      "outputs": [
        {
          "internalType": "address",
          "name": "",
          "type": "address"
        }
      ],
      "stateMutability": "view",
      "type": "function",
      "constant": true
    },
    {
      "inputs": [
        {
          "internalType": "address",
          "name": "owner",
          "type": "address"
        },
        {
          "internalType": "address",
          "name": "operator",
          "type": "address"
        }
      ],
      "name": "isApprovedForAll",
      "outputs": [
        {
          "internalType": "bool",
          "name": "",
          "type": "bool"
        }
      ],
      "stateMutability": "view",
      "type": "function",
      "constant": true
    },
    {
      "inputs": [],
      "name": "name",
      "outputs": [
        {
          "internalType": "string",
          "name": "",
          "type": "string"
        }
      ],
      "stateMutability": "view",
      "type": "function",
      "constant": true
    },
    {
      "inputs": [],
      "name": "owner",
      "outputs": [
        {
          "internalType": "address",
          "name": "",
          "type": "address"
        }
      ],
      "stateMutability": "view",
      "type": "function",
      "constant": true
    },
    {
      "inputs": [
        {
          "internalType": "uint256",
          "name": "tokenId",
          "type": "uint256"
        }
      ],
      "name": "ownerOf",
      "outputs": [
        {
          "internalType": "address",
          "name": "",
          "type": "address"
        }
      ],
      "stateMutability": "view",
      "type": "function",
      "constant": true
    },
    {
      "inputs": [],
      "name": "renounceOwnership",
      "outputs": [],
      "stateMutability": "nonpayable",
      "type": "function"
    },
    {
      "inputs": [
        {
          "internalType": "address",
          "name": "from",
          "type": "address"
        },
        {
          "internalType": "address",
          "name": "to",
          "type": "address"
        },
        {
          "internalType": "uint256",
          "name": "tokenId",
          "type": "uint256"
        }
      ],
      "name": "safeTransferFrom",
      "outputs": [],
      "stateMutability": "nonpayable",
      "type": "function"
    },
    {
      "inputs": [
        {
          "internalType": "address",
          "name": "from",
          "type": "address"
        },
        {
          "internalType": "address",
          "name": "to",
          "type": "address"
        },
        {
          "internalType": "uint256",
          "name": "tokenId",
          "type": "uint256"
        },
        {
          "internalType": "bytes",
          "name": "_data",
          "type": "bytes"
        }
      ],
      "name": "safeTransferFrom",
      "outputs": [],
      "stateMutability": "nonpayable",
      "type": "function"
    },
    {
      "inputs": [
        {
          "internalType": "address",
          "name": "operator",
          "type": "address"
        },
        {
          "internalType": "bool",
          "name": "approved",
          "type": "bool"
        }
      ],
      "name": "setApprovalForAll",
      "outputs": [],
      "stateMutability": "nonpayable",
      "type": "function"
    },
    {
      "inputs": [
        {
          "internalType": "bytes4",
          "name": "interfaceId",
          "type": "bytes4"
        }
      ],
      "name": "supportsInterface",
      "outputs": [
        {
          "internalType": "bool",
          "name": "",
          "type": "bool"
        }
      ],
      "stateMutability": "view",
      "type": "function",
      "constant": true
    },
    {
      "inputs": [],
      "name": "symbol",
      "outputs": [
        {
          "internalType": "string",
          "name": "",
          "type": "string"
        }
      ],
      "stateMutability": "view",
      "type": "function",
      "constant": true
    },
    {
      "inputs": [
        {
          "internalType": "address",
          "name": "from",
          "type": "address"
        },
        {
          "internalType": "address",
          "name": "to",
          "type": "address"
        },
        {
          "internalType": "uint256",
          "name": "tokenId",
          "type": "uint256"
        }
      ],
      "name": "transferFrom",
      "outputs": [],
      "stateMutability": "nonpayable",
      "type": "function"
    },
    {
      "inputs": [
        {
          "internalType": "address",
          "name": "newOwner",
          "type": "address"
        }
      ],
      "name": "transferOwnership",
      "outputs": [],
      "stateMutability": "nonpayable",
      "type": "function"
    },
    {
      "inputs": [
        {
          "internalType": "uint256",
          "name": "tokenId",
          "type": "uint256"
        }
      ],
      "name": "tokenURI",
      "outputs": [
        {
          "internalType": "string",
          "name": "",
          "type": "string"
        }
      ],
      "stateMutability": "view",
      "type": "function",
      "constant": true
    },
    {
      "inputs": [],
      "name": "getAllTokens",
      "outputs": [
        {
          "components": [
            {
              "internalType": "uint256",
              "name": "id",
              "type": "uint256"
            },
            {
              "internalType": "string",
              "name": "uri",
              "type": "string"
            }
          ],
          "internalType": "struct NFT.RenderToken[]",
          "name": "",
          "type": "tuple[]"
        }
      ],
      "stateMutability": "view",
      "type": "function",
      "constant": true
    },
    {
      "inputs": [
        {
          "internalType": "address",
          "name": "recipient",
          "type": "address"
        },
        {
          "internalType": "string",
          "name": "uri",
          "type": "string"
        }
      ],
      "name": "mint",
      "outputs": [
        {
          "internalType": "uint256",
          "name": "",
          "type": "uint256"
        }
      ],
      "stateMutability": "nonpayable",
      "type": "function"
    }
  ],
  "bytecode": "0x60806040523480156200001157600080fd5b506040518060400160405280600581526020017f57654e46540000000000000000000000000000000000000000000000000000008152506040518060400160405280600481526020017f574e465400000000000000000000000000000000000000000000000000000000815250816000908051906020019062000096929190620001a6565b508060019080519060200190620000af929190620001a6565b505050620000d2620000c6620000d860201b60201c565b620000e060201b60201c565b620002bb565b600033905090565b6000600660009054906101000a900473ffffffffffffffffffffffffffffffffffffffff16905081600660006101000a81548173ffffffffffffffffffffffffffffffffffffffff021916908373ffffffffffffffffffffffffffffffffffffffff1602179055508173ffffffffffffffffffffffffffffffffffffffff168173ffffffffffffffffffffffffffffffffffffffff167f8be0079c531659141344cd1fd0a4f28419497f9722a3daafe3b4186f6b6457e060405160405180910390a35050565b828054620001b49062000285565b90600052602060002090601f016020900481019282620001d8576000855562000224565b82601f10620001f357805160ff191683800117855562000224565b8280016001018555821562000224579182015b828111156200022357825182559160200191906001019062000206565b5b50905062000233919062000237565b5090565b5b808211156200025257600081600090555060010162000238565b5090565b7f4e487b7100000000000000000000000000000000000000000000000000000000600052602260045260246000fd5b600060028204905060018216806200029e57607f821691505b60208210811415620002b557620002b462000256565b5b50919050565b612c7180620002cb6000396000f3fe608060405234801561001057600080fd5b50600436106101165760003560e01c8063715018a6116100a2578063b88d4fde11610071578063b88d4fde146102cd578063c87b56dd146102e9578063d0def52114610319578063e985e9c514610349578063f2fde38b1461037957610116565b8063715018a61461026b5780638da5cb5b1461027557806395d89b4114610293578063a22cb465146102b157610116565b806323b872dd116100e957806323b872dd146101b55780632a5c792a146101d157806342842e0e146101ef5780636352211e1461020b57806370a082311461023b57610116565b806301ffc9a71461011b57806306fdde031461014b578063081812fc14610169578063095ea7b314610199575b600080fd5b61013560048036038101906101309190611a02565b610395565b6040516101429190611a4a565b60405180910390f35b610153610477565b6040516101609190611afe565b60405180910390f35b610183600480360381019061017e9190611b56565b610509565b6040516101909190611bc4565b60405180910390f35b6101b360048036038101906101ae9190611c0b565b61058e565b005b6101cf60048036038101906101ca9190611c4b565b6106a6565b005b6101d9610706565b6040516101e69190611df6565b60405180910390f35b61020960048036038101906102049190611c4b565b6107f5565b005b61022560048036038101906102209190611b56565b610815565b6040516102329190611bc4565b60405180910390f35b61025560048036038101906102509190611e18565b6108c7565b6040516102629190611e54565b60405180910390f35b61027361097f565b005b61027d610a07565b60405161028a9190611bc4565b60405180910390f35b61029b610a31565b6040516102a89190611afe565b60405180910390f35b6102cb60048036038101906102c69190611e9b565b610ac3565b005b6102e760048036038101906102e29190612010565b610ad9565b005b61030360048036038101906102fe9190611b56565b610b3b565b6040516103109190611afe565b60405180910390f35b610333600480360381019061032e9190612134565b610bf8565b6040516103409190611e54565b60405180910390f35b610363600480360381019061035e9190612190565b610c2f565b6040516103709190611a4a565b60405180910390f35b610393600480360381019061038e9190611e18565b610cc3565b005b60007f80ac58cd000000000000000000000000000000000000000000000000000000007bffffffffffffffffffffffffffffffffffffffffffffffffffffffff1916827bffffffffffffffffffffffffffffffffffffffffffffffffffffffff1916148061046057507f5b5e139f000000000000000000000000000000000000000000000000000000007bffffffffffffffffffffffffffffffffffffffffffffffffffffffff1916827bffffffffffffffffffffffffffffffffffffffffffffffffffffffff1916145b80610470575061046f82610dbb565b5b9050919050565b606060008054610486906121ff565b80601f01602080910402602001604051908101604052809291908181526020018280546104b2906121ff565b80156104ff5780601f106104d4576101008083540402835291602001916104ff565b820191906000526020600020905b8154815290600101906020018083116104e257829003601f168201915b5050505050905090565b600061051482610e25565b610553576040517f08c379a000000000000000000000000000000000000000000000000000000000815260040161054a906122a3565b60405180910390fd5b6004600083815260200190815260200160002060009054906101000a900473ffffffffffffffffffffffffffffffffffffffff169050919050565b600061059982610815565b90508073ffffffffffffffffffffffffffffffffffffffff168373ffffffffffffffffffffffffffffffffffffffff16141561060a576040517f08c379a000000000000000000000000000000000000000000000000000000000815260040161060190612335565b60405180910390fd5b8073ffffffffffffffffffffffffffffffffffffffff16610629610e91565b73ffffffffffffffffffffffffffffffffffffffff161480610658575061065781610652610e91565b610c2f565b5b610697576040517f08c379a000000000000000000000000000000000000000000000000000000000815260040161068e906123c7565b60405180910390fd5b6106a18383610e99565b505050565b6106b76106b1610e91565b82610f52565b6106f6576040517f08c379a00000000000000000000000000000000000000000000000000000000081526004016106ed90612459565b60405180910390fd5b610701838383611030565b505050565b60606000610714600761128c565b90506000808267ffffffffffffffff81111561073357610732611ee5565b5b60405190808252806020026020018201604052801561076c57816020015b6107596118d9565b8152602001906001900390816107515790505b50905060005b838110156107eb5761078383610e25565b156107ca57600061079384610b3b565b90506040518060400160405280858152602001828152508385815181106107bd576107bc612479565b5b6020026020010181905250505b82806107d5906124d7565b93505080806107e3906124d7565b915050610772565b5080935050505090565b61081083838360405180602001604052806000815250610ad9565b505050565b6000806002600084815260200190815260200160002060009054906101000a900473ffffffffffffffffffffffffffffffffffffffff169050600073ffffffffffffffffffffffffffffffffffffffff168173ffffffffffffffffffffffffffffffffffffffff1614156108be576040517f08c379a00000000000000000000000000000000000000000000000000000000081526004016108b590612592565b60405180910390fd5b80915050919050565b60008073ffffffffffffffffffffffffffffffffffffffff168273ffffffffffffffffffffffffffffffffffffffff161415610938576040517f08c379a000000000000000000000000000000000000000000000000000000000815260040161092f90612624565b60405180910390fd5b600360008373ffffffffffffffffffffffffffffffffffffffff1673ffffffffffffffffffffffffffffffffffffffff168152602001908152602001600020549050919050565b610987610e91565b73ffffffffffffffffffffffffffffffffffffffff166109a5610a07565b73ffffffffffffffffffffffffffffffffffffffff16146109fb576040517f08c379a00000000000000000000000000000000000000000000000000000000081526004016109f290612690565b60405180910390fd5b610a05600061129a565b565b6000600660009054906101000a900473ffffffffffffffffffffffffffffffffffffffff16905090565b606060018054610a40906121ff565b80601f0160208091040260200160405190810160405280929190818152602001828054610a6c906121ff565b8015610ab95780601f10610a8e57610100808354040283529160200191610ab9565b820191906000526020600020905b815481529060010190602001808311610a9c57829003601f168201915b5050505050905090565b610ad5610ace610e91565b8383611360565b5050565b610aea610ae4610e91565b83610f52565b610b29576040517f08c379a0000000000000000000000000000000000000000000000000000000008152600401610b2090612459565b60405180910390fd5b610b35848484846114cd565b50505050565b6060610b4682610e25565b610b4f57600080fd5b6000600860008481526020019081526020016000208054610b6f906121ff565b80601f0160208091040260200160405190810160405280929190818152602001828054610b9b906121ff565b8015610be85780601f10610bbd57610100808354040283529160200191610be8565b820191906000526020600020905b815481529060010190602001808311610bcb57829003601f168201915b5050505050905080915050919050565b600080610c05600761128c565b9050610c118482611529565b610c1b81846116f7565b610c256007611723565b8091505092915050565b6000600560008473ffffffffffffffffffffffffffffffffffffffff1673ffffffffffffffffffffffffffffffffffffffff16815260200190815260200160002060008373ffffffffffffffffffffffffffffffffffffffff1673ffffffffffffffffffffffffffffffffffffffff16815260200190815260200160002060009054906101000a900460ff16905092915050565b610ccb610e91565b73ffffffffffffffffffffffffffffffffffffffff16610ce9610a07565b73ffffffffffffffffffffffffffffffffffffffff1614610d3f576040517f08c379a0000000000000000000000000000000000000000000000000000000008152600401610d3690612690565b60405180910390fd5b600073ffffffffffffffffffffffffffffffffffffffff168173ffffffffffffffffffffffffffffffffffffffff161415610daf576040517f08c379a0000000000000000000000000000000000000000000000000000000008152600401610da690612722565b60405180910390fd5b610db88161129a565b50565b60007f01ffc9a7000000000000000000000000000000000000000000000000000000007bffffffffffffffffffffffffffffffffffffffffffffffffffffffff1916827bffffffffffffffffffffffffffffffffffffffffffffffffffffffff1916149050919050565b60008073ffffffffffffffffffffffffffffffffffffffff166002600084815260200190815260200160002060009054906101000a900473ffffffffffffffffffffffffffffffffffffffff1673ffffffffffffffffffffffffffffffffffffffff1614159050919050565b600033905090565b816004600083815260200190815260200160002060006101000a81548173ffffffffffffffffffffffffffffffffffffffff021916908373ffffffffffffffffffffffffffffffffffffffff160217905550808273ffffffffffffffffffffffffffffffffffffffff16610f0c83610815565b73ffffffffffffffffffffffffffffffffffffffff167f8c5be1e5ebec7d5bd14f71427d1e84f3dd0314c0f7b2291e5b200ac8c7c3b92560405160405180910390a45050565b6000610f5d82610e25565b610f9c576040517f08c379a0000000000000000000000000000000000000000000000000000000008152600401610f93906127b4565b60405180910390fd5b6000610fa783610815565b90508073ffffffffffffffffffffffffffffffffffffffff168473ffffffffffffffffffffffffffffffffffffffff16148061101657508373ffffffffffffffffffffffffffffffffffffffff16610ffe84610509565b73ffffffffffffffffffffffffffffffffffffffff16145b8061102757506110268185610c2f565b5b91505092915050565b8273ffffffffffffffffffffffffffffffffffffffff1661105082610815565b73ffffffffffffffffffffffffffffffffffffffff16146110a6576040517f08c379a000000000000000000000000000000000000000000000000000000000815260040161109d90612846565b60405180910390fd5b600073ffffffffffffffffffffffffffffffffffffffff168273ffffffffffffffffffffffffffffffffffffffff161415611116576040517f08c379a000000000000000000000000000000000000000000000000000000000815260040161110d906128d8565b60405180910390fd5b611121838383611739565b61112c600082610e99565b6001600360008573ffffffffffffffffffffffffffffffffffffffff1673ffffffffffffffffffffffffffffffffffffffff168152602001908152602001600020600082825461117c91906128f8565b925050819055506001600360008473ffffffffffffffffffffffffffffffffffffffff1673ffffffffffffffffffffffffffffffffffffffff16815260200190815260200160002060008282546111d3919061292c565b92505081905550816002600083815260200190815260200160002060006101000a81548173ffffffffffffffffffffffffffffffffffffffff021916908373ffffffffffffffffffffffffffffffffffffffff160217905550808273ffffffffffffffffffffffffffffffffffffffff168473ffffffffffffffffffffffffffffffffffffffff167fddf252ad1be2c89b69c2b068fc378daa952ba7f163c4a11628f55a4df523b3ef60405160405180910390a4505050565b600081600001549050919050565b6000600660009054906101000a900473ffffffffffffffffffffffffffffffffffffffff16905081600660006101000a81548173ffffffffffffffffffffffffffffffffffffffff021916908373ffffffffffffffffffffffffffffffffffffffff1602179055508173ffffffffffffffffffffffffffffffffffffffff168173ffffffffffffffffffffffffffffffffffffffff167f8be0079c531659141344cd1fd0a4f28419497f9722a3daafe3b4186f6b6457e060405160405180910390a35050565b8173ffffffffffffffffffffffffffffffffffffffff168373ffffffffffffffffffffffffffffffffffffffff1614156113cf576040517f08c379a00000000000000000000000000000000000000000000000000000000081526004016113c6906129ce565b60405180910390fd5b80600560008573ffffffffffffffffffffffffffffffffffffffff1673ffffffffffffffffffffffffffffffffffffffff16815260200190815260200160002060008473ffffffffffffffffffffffffffffffffffffffff1673ffffffffffffffffffffffffffffffffffffffff16815260200190815260200160002060006101000a81548160ff0219169083151502179055508173ffffffffffffffffffffffffffffffffffffffff168373ffffffffffffffffffffffffffffffffffffffff167f17307eab39ab6107e8899845ad3d59bd9653f200f220920489ca2b5937696c31836040516114c09190611a4a565b60405180910390a3505050565b6114d8848484611030565b6114e48484848461173e565b611523576040517f08c379a000000000000000000000000000000000000000000000000000000000815260040161151a90612a60565b60405180910390fd5b50505050565b600073ffffffffffffffffffffffffffffffffffffffff168273ffffffffffffffffffffffffffffffffffffffff161415611599576040517f08c379a000000000000000000000000000000000000000000000000000000000815260040161159090612acc565b60405180910390fd5b6115a281610e25565b156115e2576040517f08c379a00000000000000000000000000000000000000000000000000000000081526004016115d990612b38565b60405180910390fd5b6115ee60008383611739565b6001600360008473ffffffffffffffffffffffffffffffffffffffff1673ffffffffffffffffffffffffffffffffffffffff168152602001908152602001600020600082825461163e919061292c565b92505081905550816002600083815260200190815260200160002060006101000a81548173ffffffffffffffffffffffffffffffffffffffff021916908373ffffffffffffffffffffffffffffffffffffffff160217905550808273ffffffffffffffffffffffffffffffffffffffff16600073ffffffffffffffffffffffffffffffffffffffff167fddf252ad1be2c89b69c2b068fc378daa952ba7f163c4a11628f55a4df523b3ef60405160405180910390a45050565b8060086000848152602001908152602001600020908051906020019061171e9291906118f3565b505050565b6001816000016000828254019250508190555050565b505050565b600061175f8473ffffffffffffffffffffffffffffffffffffffff166118c6565b156118b9578373ffffffffffffffffffffffffffffffffffffffff1663150b7a02611788610e91565b8786866040518563ffffffff1660e01b81526004016117aa9493929190612bad565b6020604051808303816000875af19250505080156117e657506040513d601f19601f820116820180604052508101906117e39190612c0e565b60015b611869573d8060008114611816576040519150601f19603f3d011682016040523d82523d6000602084013e61181b565b606091505b50600081511415611861576040517f08c379a000000000000000000000000000000000000000000000000000000000815260040161185890612a60565b60405180910390fd5b805181602001fd5b63150b7a0260e01b7bffffffffffffffffffffffffffffffffffffffffffffffffffffffff1916817bffffffffffffffffffffffffffffffffffffffffffffffffffffffff1916149150506118be565b600190505b949350505050565b600080823b905060008111915050919050565b604051806040016040528060008152602001606081525090565b8280546118ff906121ff565b90600052602060002090601f0160209004810192826119215760008555611968565b82601f1061193a57805160ff1916838001178555611968565b82800160010185558215611968579182015b8281111561196757825182559160200191906001019061194c565b5b5090506119759190611979565b5090565b5b8082111561199257600081600090555060010161197a565b5090565b6000604051905090565b600080fd5b600080fd5b60007fffffffff0000000000000000000000000000000000000000000000000000000082169050919050565b6119df816119aa565b81146119ea57600080fd5b50565b6000813590506119fc816119d6565b92915050565b600060208284031215611a1857611a176119a0565b5b6000611a26848285016119ed565b91505092915050565b60008115159050919050565b611a4481611a2f565b82525050565b6000602082019050611a5f6000830184611a3b565b92915050565b600081519050919050565b600082825260208201905092915050565b60005b83811015611a9f578082015181840152602081019050611a84565b83811115611aae576000848401525b50505050565b6000601f19601f8301169050919050565b6000611ad082611a65565b611ada8185611a70565b9350611aea818560208601611a81565b611af381611ab4565b840191505092915050565b60006020820190508181036000830152611b188184611ac5565b905092915050565b6000819050919050565b611b3381611b20565b8114611b3e57600080fd5b50565b600081359050611b5081611b2a565b92915050565b600060208284031215611b6c57611b6b6119a0565b5b6000611b7a84828501611b41565b91505092915050565b600073ffffffffffffffffffffffffffffffffffffffff82169050919050565b6000611bae82611b83565b9050919050565b611bbe81611ba3565b82525050565b6000602082019050611bd96000830184611bb5565b92915050565b611be881611ba3565b8114611bf357600080fd5b50565b600081359050611c0581611bdf565b92915050565b60008060408385031215611c2257611c216119a0565b5b6000611c3085828601611bf6565b9250506020611c4185828601611b41565b9150509250929050565b600080600060608486031215611c6457611c636119a0565b5b6000611c7286828701611bf6565b9350506020611c8386828701611bf6565b9250506040611c9486828701611b41565b9150509250925092565b600081519050919050565b600082825260208201905092915050565b6000819050602082019050919050565b611cd381611b20565b82525050565b600082825260208201905092915050565b6000611cf582611a65565b611cff8185611cd9565b9350611d0f818560208601611a81565b611d1881611ab4565b840191505092915050565b6000604083016000830151611d3b6000860182611cca565b5060208301518482036020860152611d538282611cea565b9150508091505092915050565b6000611d6c8383611d23565b905092915050565b6000602082019050919050565b6000611d8c82611c9e565b611d968185611ca9565b935083602082028501611da885611cba565b8060005b85811015611de45784840389528151611dc58582611d60565b9450611dd083611d74565b925060208a01995050600181019050611dac565b50829750879550505050505092915050565b60006020820190508181036000830152611e108184611d81565b905092915050565b600060208284031215611e2e57611e2d6119a0565b5b6000611e3c84828501611bf6565b91505092915050565b611e4e81611b20565b82525050565b6000602082019050611e696000830184611e45565b92915050565b611e7881611a2f565b8114611e8357600080fd5b50565b600081359050611e9581611e6f565b92915050565b60008060408385031215611eb257611eb16119a0565b5b6000611ec085828601611bf6565b9250506020611ed185828601611e86565b9150509250929050565b600080fd5b600080fd5b7f4e487b7100000000000000000000000000000000000000000000000000000000600052604160045260246000fd5b611f1d82611ab4565b810181811067ffffffffffffffff82111715611f3c57611f3b611ee5565b5b80604052505050565b6000611f4f611996565b9050611f5b8282611f14565b919050565b600067ffffffffffffffff821115611f7b57611f7a611ee5565b5b611f8482611ab4565b9050602081019050919050565b82818337600083830152505050565b6000611fb3611fae84611f60565b611f45565b905082815260208101848484011115611fcf57611fce611ee0565b5b611fda848285611f91565b509392505050565b600082601f830112611ff757611ff6611edb565b5b8135612007848260208601611fa0565b91505092915050565b6000806000806080858703121561202a576120296119a0565b5b600061203887828801611bf6565b945050602061204987828801611bf6565b935050604061205a87828801611b41565b925050606085013567ffffffffffffffff81111561207b5761207a6119a5565b5b61208787828801611fe2565b91505092959194509250565b600067ffffffffffffffff8211156120ae576120ad611ee5565b5b6120b782611ab4565b9050602081019050919050565b60006120d76120d284612093565b611f45565b9050828152602081018484840111156120f3576120f2611ee0565b5b6120fe848285611f91565b509392505050565b600082601f83011261211b5761211a611edb565b5b813561212b8482602086016120c4565b91505092915050565b6000806040838503121561214b5761214a6119a0565b5b600061215985828601611bf6565b925050602083013567ffffffffffffffff81111561217a576121796119a5565b5b61218685828601612106565b9150509250929050565b600080604083850312156121a7576121a66119a0565b5b60006121b585828601611bf6565b92505060206121c685828601611bf6565b9150509250929050565b7f4e487b7100000000000000000000000000000000000000000000000000000000600052602260045260246000fd5b6000600282049050600182168061221757607f821691505b6020821081141561222b5761222a6121d0565b5b50919050565b7f4552433732313a20617070726f76656420717565727920666f72206e6f6e657860008201527f697374656e7420746f6b656e0000000000000000000000000000000000000000602082015250565b600061228d602c83611a70565b915061229882612231565b604082019050919050565b600060208201905081810360008301526122bc81612280565b9050919050565b7f4552433732313a20617070726f76616c20746f2063757272656e74206f776e6560008201527f7200000000000000000000000000000000000000000000000000000000000000602082015250565b600061231f602183611a70565b915061232a826122c3565b604082019050919050565b6000602082019050818103600083015261234e81612312565b9050919050565b7f4552433732313a20617070726f76652063616c6c6572206973206e6f74206f7760008201527f6e6572206e6f7220617070726f76656420666f7220616c6c0000000000000000602082015250565b60006123b1603883611a70565b91506123bc82612355565b604082019050919050565b600060208201905081810360008301526123e0816123a4565b9050919050565b7f4552433732313a207472616e736665722063616c6c6572206973206e6f74206f60008201527f776e6572206e6f7220617070726f766564000000000000000000000000000000602082015250565b6000612443603183611a70565b915061244e826123e7565b604082019050919050565b6000602082019050818103600083015261247281612436565b9050919050565b7f4e487b7100000000000000000000000000000000000000000000000000000000600052603260045260246000fd5b7f4e487b7100000000000000000000000000000000000000000000000000000000600052601160045260246000fd5b60006124e282611b20565b91507fffffffffffffffffffffffffffffffffffffffffffffffffffffffffffffffff821415612515576125146124a8565b5b600182019050919050565b7f4552433732313a206f776e657220717565727920666f72206e6f6e657869737460008201527f656e7420746f6b656e0000000000000000000000000000000000000000000000602082015250565b600061257c602983611a70565b915061258782612520565b604082019050919050565b600060208201905081810360008301526125ab8161256f565b9050919050565b7f4552433732313a2062616c616e636520717565727920666f7220746865207a6560008201527f726f206164647265737300000000000000000000000000000000000000000000602082015250565b600061260e602a83611a70565b9150612619826125b2565b604082019050919050565b6000602082019050818103600083015261263d81612601565b9050919050565b7f4f776e61626c653a2063616c6c6572206973206e6f7420746865206f776e6572600082015250565b600061267a602083611a70565b915061268582612644565b602082019050919050565b600060208201905081810360008301526126a98161266d565b9050919050565b7f4f776e61626c653a206e6577206f776e657220697320746865207a65726f206160008201527f6464726573730000000000000000000000000000000000000000000000000000602082015250565b600061270c602683611a70565b9150612717826126b0565b604082019050919050565b6000602082019050818103600083015261273b816126ff565b9050919050565b7f4552433732313a206f70657261746f7220717565727920666f72206e6f6e657860008201527f697374656e7420746f6b656e0000000000000000000000000000000000000000602082015250565b600061279e602c83611a70565b91506127a982612742565b604082019050919050565b600060208201905081810360008301526127cd81612791565b9050919050565b7f4552433732313a207472616e73666572206f6620746f6b656e2074686174206960008201527f73206e6f74206f776e0000000000000000000000000000000000000000000000602082015250565b6000612830602983611a70565b915061283b826127d4565b604082019050919050565b6000602082019050818103600083015261285f81612823565b9050919050565b7f4552433732313a207472616e7366657220746f20746865207a65726f2061646460008201527f7265737300000000000000000000000000000000000000000000000000000000602082015250565b60006128c2602483611a70565b91506128cd82612866565b604082019050919050565b600060208201905081810360008301526128f1816128b5565b9050919050565b600061290382611b20565b915061290e83611b20565b925082821015612921576129206124a8565b5b828203905092915050565b600061293782611b20565b915061294283611b20565b9250827fffffffffffffffffffffffffffffffffffffffffffffffffffffffffffffffff03821115612977576129766124a8565b5b828201905092915050565b7f4552433732313a20617070726f766520746f2063616c6c657200000000000000600082015250565b60006129b8601983611a70565b91506129c382612982565b602082019050919050565b600060208201905081810360008301526129e7816129ab565b9050919050565b7f4552433732313a207472616e7366657220746f206e6f6e20455243373231526560008201527f63656976657220696d706c656d656e7465720000000000000000000000000000602082015250565b6000612a4a603283611a70565b9150612a55826129ee565b604082019050919050565b60006020820190508181036000830152612a7981612a3d565b9050919050565b7f4552433732313a206d696e7420746f20746865207a65726f2061646472657373600082015250565b6000612ab6602083611a70565b9150612ac182612a80565b602082019050919050565b60006020820190508181036000830152612ae581612aa9565b9050919050565b7f4552433732313a20746f6b656e20616c7265616479206d696e74656400000000600082015250565b6000612b22601c83611a70565b9150612b2d82612aec565b602082019050919050565b60006020820190508181036000830152612b5181612b15565b9050919050565b600081519050919050565b600082825260208201905092915050565b6000612b7f82612b58565b612b898185612b63565b9350612b99818560208601611a81565b612ba281611ab4565b840191505092915050565b6000608082019050612bc26000830187611bb5565b612bcf6020830186611bb5565b612bdc6040830185611e45565b8181036060830152612bee8184612b74565b905095945050505050565b600081519050612c08816119d6565b92915050565b600060208284031215612c2457612c236119a0565b5b6000612c3284828501612bf9565b9150509291505056fea2646970667358221220d60dabc9fcf974b0742c321810c1729faccfd451b8e1bc9982fbd7c90b190fac64736f6c634300080b0033",
  "immutableReferences": {},
  "source": "// SPDX-License-Identifier: MIT\n\npragma solidity ^0.8.0;\n\nimport \"@openzeppelin/contracts/token/ERC721/ERC721.sol\";\nimport \"@openzeppelin/contracts/utils/Counters.sol\";\nimport \"@openzeppelin/contracts/access/Ownable.sol\";\n\ncontract NFT is ERC721, Ownable {\n  using Counters for Counters.Counter;\n  using Strings for uint256;\n  Counters.Counter _tokenIds;\n  mapping(uint256 => string) _tokenURIs;\n\n  struct RenderToken {\n    uint256 id;\n    string uri;\n  }\n\n  constructor() ERC721(\"WeNFT\", \"WNFT\") {}\n\n  function _setTokenURI(uint256 tokenId, string memory _tokenURI) internal {\n    _tokenURIs[tokenId] = _tokenURI;\n  }\n\n  function tokenURI(uint256 tokenId)\n    public\n    view\n    virtual\n    override\n    returns (string memory)\n  {\n    require(_exists(tokenId));\n    string memory _tokenURI = _tokenURIs[tokenId];\n    return _tokenURI;\n  }\n\n  function getAllTokens() public view returns (RenderToken[] memory) {\n    uint256 lastestId = _tokenIds.current();\n    uint256 counter = 0;\n    RenderToken[] memory res = new RenderToken[](lastestId);\n    for (uint256 i = 0; i < lastestId; i++) {\n      if (_exists(counter)) {\n        string memory uri = tokenURI(counter);\n        res[counter] = RenderToken(counter, uri);\n      }\n      counter++;\n    }\n    return res;\n  }\n\n  function mint(address recipient, string memory uri) public returns (uint256) {\n    uint256 newId = _tokenIds.current();\n    _mint(recipient, newId);\n    _setTokenURI(newId, uri);\n    _tokenIds.increment();\n    return newId;\n  }\n}",
  "sourcePath": "/Users/antarikshverma/Dev/metis-hackathon/contracts/contracts/NFT.sol",
  "compiler": {
    "name": "solc",
    "version": "0.8.11+commit.d7f03943.Emscripten.clang"
  },
  "schemaVersion": "3.4.4",
  "updatedAt": "2021-12-29T09:51:06.154Z",
  "networkType": "ethereum",
  "devdoc": {
    "kind": "dev",
    "methods": {
      "approve(address,uint256)": {
        "details": "See {IERC721-approve}."
      },
      "balanceOf(address)": {
        "details": "See {IERC721-balanceOf}."
      },
      "getApproved(uint256)": {
        "details": "See {IERC721-getApproved}."
      },
      "isApprovedForAll(address,address)": {
        "details": "See {IERC721-isApprovedForAll}."
      },
      "name()": {
        "details": "See {IERC721Metadata-name}."
      },
      "owner()": {
        "details": "Returns the address of the current owner."
      },
      "ownerOf(uint256)": {
        "details": "See {IERC721-ownerOf}."
      },
      "renounceOwnership()": {
        "details": "Leaves the contract without owner. It will not be possible to call `onlyOwner` functions anymore. Can only be called by the current owner. NOTE: Renouncing ownership will leave the contract without an owner, thereby removing any functionality that is only available to the owner."
      },
      "safeTransferFrom(address,address,uint256)": {
        "details": "See {IERC721-safeTransferFrom}."
      },
      "safeTransferFrom(address,address,uint256,bytes)": {
        "details": "See {IERC721-safeTransferFrom}."
      },
      "setApprovalForAll(address,bool)": {
        "details": "See {IERC721-setApprovalForAll}."
      },
      "supportsInterface(bytes4)": {
        "details": "See {IERC165-supportsInterface}."
      },
      "symbol()": {
        "details": "See {IERC721Metadata-symbol}."
      },
      "tokenURI(uint256)": {
        "details": "See {IERC721Metadata-tokenURI}."
      },
      "transferFrom(address,address,uint256)": {
        "details": "See {IERC721-transferFrom}."
      },
      "transferOwnership(address)": {
        "details": "Transfers ownership of the contract to a new account (`newOwner`). Can only be called by the current owner."
      }
    },
    "version": 1
  },
  "userdoc": {
    "kind": "user",
    "methods": {},
    "version": 1
  }
}