{
  "_format": "hh-sol-artifact-1",
  "contractName": "NFT",
  "sourceName": "contracts/NFT.sol",
  "abi": [
    {
      "inputs": [],
      "stateMutability": "nonpayable",
      "type": "constructor"
    },
    {
      "anonymous": false,
      "inputs": [
        {
          "indexed": true,
          "internalType": "address",
          "name": "owner",
          "type": "address"
        },
        {
          "indexed": true,
          "internalType": "address",
          "name": "approved",
          "type": "address"
        },
        {
          "indexed": true,
          "internalType": "uint256",
          "name": "tokenId",
          "type": "uint256"
        }
      ],
      "name": "Approval",
      "type": "event"
    },
    {
      "anonymous": false,
      "inputs": [
        {
          "indexed": true,
          "internalType": "address",
          "name": "owner",
          "type": "address"
        },
        {
          "indexed": true,
          "internalType": "address",
          "name": "operator",
          "type": "address"
        },
        {
          "indexed": false,
          "internalType": "bool",
          "name": "approved",
          "type": "bool"
        }
      ],
      "name": "ApprovalForAll",
      "type": "event"
    },
    {
      "anonymous": false,
      "inputs": [
        {
          "indexed": true,
          "internalType": "address",
          "name": "previousOwner",
          "type": "address"
        },
        {
          "indexed": true,
          "internalType": "address",
          "name": "newOwner",
          "type": "address"
        }
      ],
      "name": "OwnershipTransferred",
      "type": "event"
    },
    {
      "anonymous": false,
      "inputs": [
        {
          "indexed": true,
          "internalType": "address",
          "name": "from",
          "type": "address"
        },
        {
          "indexed": true,
          "internalType": "address",
          "name": "to",
          "type": "address"
        },
        {
          "indexed": true,
          "internalType": "uint256",
          "name": "tokenId",
          "type": "uint256"
        }
      ],
      "name": "Transfer",
      "type": "event"
    },
    {
      "inputs": [
        {
          "internalType": "address",
          "name": "to",
          "type": "address"
        },
        {
          "internalType": "uint256",
          "name": "tokenId",
          "type": "uint256"
        }
      ],
      "name": "approve",
      "outputs": [],
      "stateMutability": "nonpayable",
      "type": "function"
    },
    {
      "inputs": [
        {
          "internalType": "address",
          "name": "owner",
          "type": "address"
        }
      ],
      "name": "balanceOf",
      "outputs": [
        {
          "internalType": "uint256",
          "name": "",
          "type": "uint256"
        }
      ],
      "stateMutability": "view",
      "type": "function"
    },
    {
      "inputs": [],
      "name": "getAllTokens",
      "outputs": [
        {
          "components": [
            {
              "internalType": "uint256",
              "name": "id",
              "type": "uint256"
            },
            {
              "internalType": "string",
              "name": "uri",
              "type": "string"
            }
          ],
          "internalType": "struct NFT.RenderToken[]",
          "name": "",
          "type": "tuple[]"
        }
      ],
      "stateMutability": "view",
      "type": "function"
    },
    {
      "inputs": [
        {
          "internalType": "uint256",
          "name": "tokenId",
          "type": "uint256"
        }
      ],
      "name": "getApproved",
      "outputs": [
        {
          "internalType": "address",
          "name": "",
          "type": "address"
        }
      ],
      "stateMutability": "view",
      "type": "function"
    },
    {
      "inputs": [
        {
          "internalType": "address",
          "name": "owner",
          "type": "address"
        },
        {
          "internalType": "address",
          "name": "operator",
          "type": "address"
        }
      ],
      "name": "isApprovedForAll",
      "outputs": [
        {
          "internalType": "bool",
          "name": "",
          "type": "bool"
        }
      ],
      "stateMutability": "view",
      "type": "function"
    },
    {
      "inputs": [
        {
          "internalType": "address",
          "name": "recipient",
          "type": "address"
        },
        {
          "internalType": "string",
          "name": "uri",
          "type": "string"
        }
      ],
      "name": "mint",
      "outputs": [
        {
          "internalType": "uint256",
          "name": "",
          "type": "uint256"
        }
      ],
      "stateMutability": "nonpayable",
      "type": "function"
    },
    {
      "inputs": [],
      "name": "name",
      "outputs": [
        {
          "internalType": "string",
          "name": "",
          "type": "string"
        }
      ],
      "stateMutability": "view",
      "type": "function"
    },
    {
      "inputs": [],
      "name": "owner",
      "outputs": [
        {
          "internalType": "address",
          "name": "",
          "type": "address"
        }
      ],
      "stateMutability": "view",
      "type": "function"
    },
    {
      "inputs": [
        {
          "internalType": "uint256",
          "name": "tokenId",
          "type": "uint256"
        }
      ],
      "name": "ownerOf",
      "outputs": [
        {
          "internalType": "address",
          "name": "",
          "type": "address"
        }
      ],
      "stateMutability": "view",
      "type": "function"
    },
    {
      "inputs": [],
      "name": "renounceOwnership",
      "outputs": [],
      "stateMutability": "nonpayable",
      "type": "function"
    },
    {
      "inputs": [
        {
          "internalType": "address",
          "name": "from",
          "type": "address"
        },
        {
          "internalType": "address",
          "name": "to",
          "type": "address"
        },
        {
          "internalType": "uint256",
          "name": "tokenId",
          "type": "uint256"
        }
      ],
      "name": "safeTransferFrom",
      "outputs": [],
      "stateMutability": "nonpayable",
      "type": "function"
    },
    {
      "inputs": [
        {
          "internalType": "address",
          "name": "from",
          "type": "address"
        },
        {
          "internalType": "address",
          "name": "to",
          "type": "address"
        },
        {
          "internalType": "uint256",
          "name": "tokenId",
          "type": "uint256"
        },
        {
          "internalType": "bytes",
          "name": "_data",
          "type": "bytes"
        }
      ],
      "name": "safeTransferFrom",
      "outputs": [],
      "stateMutability": "nonpayable",
      "type": "function"
    },
    {
      "inputs": [
        {
          "internalType": "address",
          "name": "operator",
          "type": "address"
        },
        {
          "internalType": "bool",
          "name": "approved",
          "type": "bool"
        }
      ],
      "name": "setApprovalForAll",
      "outputs": [],
      "stateMutability": "nonpayable",
      "type": "function"
    },
    {
      "inputs": [
        {
          "internalType": "bytes4",
          "name": "interfaceId",
          "type": "bytes4"
        }
      ],
      "name": "supportsInterface",
      "outputs": [
        {
          "internalType": "bool",
          "name": "",
          "type": "bool"
        }
      ],
      "stateMutability": "view",
      "type": "function"
    },
    {
      "inputs": [],
      "name": "symbol",
      "outputs": [
        {
          "internalType": "string",
          "name": "",
          "type": "string"
        }
      ],
      "stateMutability": "view",
      "type": "function"
    },
    {
      "inputs": [
        {
          "internalType": "uint256",
          "name": "tokenId",
          "type": "uint256"
        }
      ],
      "name": "tokenURI",
      "outputs": [
        {
          "internalType": "string",
          "name": "",
          "type": "string"
        }
      ],
      "stateMutability": "view",
      "type": "function"
    },
    {
      "inputs": [
        {
          "internalType": "address",
          "name": "from",
          "type": "address"
        },
        {
          "internalType": "address",
          "name": "to",
          "type": "address"
        },
        {
          "internalType": "uint256",
          "name": "tokenId",
          "type": "uint256"
        }
      ],
      "name": "transferFrom",
      "outputs": [],
      "stateMutability": "nonpayable",
      "type": "function"
    },
    {
      "inputs": [
        {
          "internalType": "address",
          "name": "newOwner",
          "type": "address"
        }
      ],
      "name": "transferOwnership",
      "outputs": [],
      "stateMutability": "nonpayable",
      "type": "function"
    }
  ],
  "bytecode": "0x60806040523480156200001157600080fd5b506040518060400160405280600581526020017f57654e46540000000000000000000000000000000000000000000000000000008152506040518060400160405280600481526020017f574e465400000000000000000000000000000000000000000000000000000000815250816000908051906020019062000096929190620001a6565b508060019080519060200190620000af929190620001a6565b505050620000d2620000c6620000d860201b60201c565b620000e060201b60201c565b620002bb565b600033905090565b6000600660009054906101000a900473ffffffffffffffffffffffffffffffffffffffff16905081600660006101000a81548173ffffffffffffffffffffffffffffffffffffffff021916908373ffffffffffffffffffffffffffffffffffffffff1602179055508173ffffffffffffffffffffffffffffffffffffffff168173ffffffffffffffffffffffffffffffffffffffff167f8be0079c531659141344cd1fd0a4f28419497f9722a3daafe3b4186f6b6457e060405160405180910390a35050565b828054620001b49062000256565b90600052602060002090601f016020900481019282620001d8576000855562000224565b82601f10620001f357805160ff191683800117855562000224565b8280016001018555821562000224579182015b828111156200022357825182559160200191906001019062000206565b5b50905062000233919062000237565b5090565b5b808211156200025257600081600090555060010162000238565b5090565b600060028204905060018216806200026f57607f821691505b602082108114156200028657620002856200028c565b5b50919050565b7f4e487b7100000000000000000000000000000000000000000000000000000000600052602260045260246000fd5b612b6e80620002cb6000396000f3fe608060405234801561001057600080fd5b50600436106101165760003560e01c8063715018a6116100a2578063b88d4fde11610071578063b88d4fde146102cd578063c87b56dd146102e9578063d0def52114610319578063e985e9c514610349578063f2fde38b1461037957610116565b8063715018a61461026b5780638da5cb5b1461027557806395d89b4114610293578063a22cb465146102b157610116565b806323b872dd116100e957806323b872dd146101b55780632a5c792a146101d157806342842e0e146101ef5780636352211e1461020b57806370a082311461023b57610116565b806301ffc9a71461011b57806306fdde031461014b578063081812fc14610169578063095ea7b314610199575b600080fd5b61013560048036038101906101309190611d25565b610395565b6040516101429190612538565b60405180910390f35b610153610477565b6040516101609190612553565b60405180910390f35b610183600480360381019061017e9190611d77565b610509565b60405161019091906124af565b60405180910390f35b6101b360048036038101906101ae9190611ce9565b61058e565b005b6101cf60048036038101906101ca9190611b8f565b6106a6565b005b6101d9610706565b6040516101e69190612516565b60405180910390f35b61020960048036038101906102049190611b8f565b610841565b005b61022560048036038101906102209190611d77565b610861565b60405161023291906124af565b60405180910390f35b61025560048036038101906102509190611b2a565b610913565b6040516102629190612755565b60405180910390f35b6102736109cb565b005b61027d610a53565b60405161028a91906124af565b60405180910390f35b61029b610a7d565b6040516102a89190612553565b60405180910390f35b6102cb60048036038101906102c69190611c59565b610b0f565b005b6102e760048036038101906102e29190611bde565b610b25565b005b61030360048036038101906102fe9190611d77565b610b87565b6040516103109190612553565b60405180910390f35b610333600480360381019061032e9190611c95565b610c44565b6040516103409190612755565b60405180910390f35b610363600480360381019061035e9190611b53565b610c7b565b6040516103709190612538565b60405180910390f35b610393600480360381019061038e9190611b2a565b610d0f565b005b60007f80ac58cd000000000000000000000000000000000000000000000000000000007bffffffffffffffffffffffffffffffffffffffffffffffffffffffff1916827bffffffffffffffffffffffffffffffffffffffffffffffffffffffff1916148061046057507f5b5e139f000000000000000000000000000000000000000000000000000000007bffffffffffffffffffffffffffffffffffffffffffffffffffffffff1916827bffffffffffffffffffffffffffffffffffffffffffffffffffffffff1916145b80610470575061046f82610e07565b5b9050919050565b606060008054610486906129c3565b80601f01602080910402602001604051908101604052809291908181526020018280546104b2906129c3565b80156104ff5780601f106104d4576101008083540402835291602001916104ff565b820191906000526020600020905b8154815290600101906020018083116104e257829003601f168201915b5050505050905090565b600061051482610e71565b610553576040517f08c379a000000000000000000000000000000000000000000000000000000000815260040161054a906126b5565b60405180910390fd5b6004600083815260200190815260200160002060009054906101000a900473ffffffffffffffffffffffffffffffffffffffff169050919050565b600061059982610861565b90508073ffffffffffffffffffffffffffffffffffffffff168373ffffffffffffffffffffffffffffffffffffffff16141561060a576040517f08c379a000000000000000000000000000000000000000000000000000000000815260040161060190612715565b60405180910390fd5b8073ffffffffffffffffffffffffffffffffffffffff16610629610edd565b73ffffffffffffffffffffffffffffffffffffffff161480610658575061065781610652610edd565b610c7b565b5b610697576040517f08c379a000000000000000000000000000000000000000000000000000000000815260040161068e90612635565b60405180910390fd5b6106a18383610ee5565b505050565b6106b76106b1610edd565b82610f9e565b6106f6576040517f08c379a00000000000000000000000000000000000000000000000000000000081526004016106ed90612735565b60405180910390fd5b61070183838361107c565b505050565b6060600061071460076112d8565b90506000808267ffffffffffffffff811115610759577f4e487b7100000000000000000000000000000000000000000000000000000000600052604160045260246000fd5b60405190808252806020026020018201604052801561079257816020015b61077f611934565b8152602001906001900390816107775790505b50905060005b83811015610837576107a983610e71565b156108165760006107b984610b87565b9050604051806040016040528085815260200182815250838581518110610809577f4e487b7100000000000000000000000000000000000000000000000000000000600052603260045260246000fd5b6020026020010181905250505b8280610821906129f5565b935050808061082f906129f5565b915050610798565b5080935050505090565b61085c83838360405180602001604052806000815250610b25565b505050565b6000806002600084815260200190815260200160002060009054906101000a900473ffffffffffffffffffffffffffffffffffffffff169050600073ffffffffffffffffffffffffffffffffffffffff168173ffffffffffffffffffffffffffffffffffffffff16141561090a576040517f08c379a000000000000000000000000000000000000000000000000000000000815260040161090190612675565b60405180910390fd5b80915050919050565b60008073ffffffffffffffffffffffffffffffffffffffff168273ffffffffffffffffffffffffffffffffffffffff161415610984576040517f08c379a000000000000000000000000000000000000000000000000000000000815260040161097b90612655565b60405180910390fd5b600360008373ffffffffffffffffffffffffffffffffffffffff1673ffffffffffffffffffffffffffffffffffffffff168152602001908152602001600020549050919050565b6109d3610edd565b73ffffffffffffffffffffffffffffffffffffffff166109f1610a53565b73ffffffffffffffffffffffffffffffffffffffff1614610a47576040517f08c379a0000000000000000000000000000000000000000000000000000000008152600401610a3e906126d5565b60405180910390fd5b610a5160006112e6565b565b6000600660009054906101000a900473ffffffffffffffffffffffffffffffffffffffff16905090565b606060018054610a8c906129c3565b80601f0160208091040260200160405190810160405280929190818152602001828054610ab8906129c3565b8015610b055780601f10610ada57610100808354040283529160200191610b05565b820191906000526020600020905b815481529060010190602001808311610ae857829003601f168201915b5050505050905090565b610b21610b1a610edd565b83836113ac565b5050565b610b36610b30610edd565b83610f9e565b610b75576040517f08c379a0000000000000000000000000000000000000000000000000000000008152600401610b6c90612735565b60405180910390fd5b610b8184848484611519565b50505050565b6060610b9282610e71565b610b9b57600080fd5b6000600860008481526020019081526020016000208054610bbb906129c3565b80601f0160208091040260200160405190810160405280929190818152602001828054610be7906129c3565b8015610c345780601f10610c0957610100808354040283529160200191610c34565b820191906000526020600020905b815481529060010190602001808311610c1757829003601f168201915b5050505050905080915050919050565b600080610c5160076112d8565b9050610c5d8482611575565b610c678184611743565b610c71600761176f565b8091505092915050565b6000600560008473ffffffffffffffffffffffffffffffffffffffff1673ffffffffffffffffffffffffffffffffffffffff16815260200190815260200160002060008373ffffffffffffffffffffffffffffffffffffffff1673ffffffffffffffffffffffffffffffffffffffff16815260200190815260200160002060009054906101000a900460ff16905092915050565b610d17610edd565b73ffffffffffffffffffffffffffffffffffffffff16610d35610a53565b73ffffffffffffffffffffffffffffffffffffffff1614610d8b576040517f08c379a0000000000000000000000000000000000000000000000000000000008152600401610d82906126d5565b60405180910390fd5b600073ffffffffffffffffffffffffffffffffffffffff168173ffffffffffffffffffffffffffffffffffffffff161415610dfb576040517f08c379a0000000000000000000000000000000000000000000000000000000008152600401610df290612595565b60405180910390fd5b610e04816112e6565b50565b60007f01ffc9a7000000000000000000000000000000000000000000000000000000007bffffffffffffffffffffffffffffffffffffffffffffffffffffffff1916827bffffffffffffffffffffffffffffffffffffffffffffffffffffffff1916149050919050565b60008073ffffffffffffffffffffffffffffffffffffffff166002600084815260200190815260200160002060009054906101000a900473ffffffffffffffffffffffffffffffffffffffff1673ffffffffffffffffffffffffffffffffffffffff1614159050919050565b600033905090565b816004600083815260200190815260200160002060006101000a81548173ffffffffffffffffffffffffffffffffffffffff021916908373ffffffffffffffffffffffffffffffffffffffff160217905550808273ffffffffffffffffffffffffffffffffffffffff16610f5883610861565b73ffffffffffffffffffffffffffffffffffffffff167f8c5be1e5ebec7d5bd14f71427d1e84f3dd0314c0f7b2291e5b200ac8c7c3b92560405160405180910390a45050565b6000610fa982610e71565b610fe8576040517f08c379a0000000000000000000000000000000000000000000000000000000008152600401610fdf90612615565b60405180910390fd5b6000610ff383610861565b90508073ffffffffffffffffffffffffffffffffffffffff168473ffffffffffffffffffffffffffffffffffffffff16148061106257508373ffffffffffffffffffffffffffffffffffffffff1661104a84610509565b73ffffffffffffffffffffffffffffffffffffffff16145b8061107357506110728185610c7b565b5b91505092915050565b8273ffffffffffffffffffffffffffffffffffffffff1661109c82610861565b73ffffffffffffffffffffffffffffffffffffffff16146110f2576040517f08c379a00000000000000000000000000000000000000000000000000000000081526004016110e9906126f5565b60405180910390fd5b600073ffffffffffffffffffffffffffffffffffffffff168273ffffffffffffffffffffffffffffffffffffffff161415611162576040517f08c379a0000000000000000000000000000000000000000000000000000000008152600401611159906125d5565b60405180910390fd5b61116d838383611785565b611178600082610ee5565b6001600360008573ffffffffffffffffffffffffffffffffffffffff1673ffffffffffffffffffffffffffffffffffffffff16815260200190815260200160002060008282546111c891906128d9565b925050819055506001600360008473ffffffffffffffffffffffffffffffffffffffff1673ffffffffffffffffffffffffffffffffffffffff168152602001908152602001600020600082825461121f9190612883565b92505081905550816002600083815260200190815260200160002060006101000a81548173ffffffffffffffffffffffffffffffffffffffff021916908373ffffffffffffffffffffffffffffffffffffffff160217905550808273ffffffffffffffffffffffffffffffffffffffff168473ffffffffffffffffffffffffffffffffffffffff167fddf252ad1be2c89b69c2b068fc378daa952ba7f163c4a11628f55a4df523b3ef60405160405180910390a4505050565b600081600001549050919050565b6000600660009054906101000a900473ffffffffffffffffffffffffffffffffffffffff16905081600660006101000a81548173ffffffffffffffffffffffffffffffffffffffff021916908373ffffffffffffffffffffffffffffffffffffffff1602179055508173ffffffffffffffffffffffffffffffffffffffff168173ffffffffffffffffffffffffffffffffffffffff167f8be0079c531659141344cd1fd0a4f28419497f9722a3daafe3b4186f6b6457e060405160405180910390a35050565b8173ffffffffffffffffffffffffffffffffffffffff168373ffffffffffffffffffffffffffffffffffffffff16141561141b576040517f08c379a0000000000000000000000000000000000000000000000000000000008152600401611412906125f5565b60405180910390fd5b80600560008573ffffffffffffffffffffffffffffffffffffffff1673ffffffffffffffffffffffffffffffffffffffff16815260200190815260200160002060008473ffffffffffffffffffffffffffffffffffffffff1673ffffffffffffffffffffffffffffffffffffffff16815260200190815260200160002060006101000a81548160ff0219169083151502179055508173ffffffffffffffffffffffffffffffffffffffff168373ffffffffffffffffffffffffffffffffffffffff167f17307eab39ab6107e8899845ad3d59bd9653f200f220920489ca2b5937696c318360405161150c9190612538565b60405180910390a3505050565b61152484848461107c565b6115308484848461178a565b61156f576040517f08c379a000000000000000000000000000000000000000000000000000000000815260040161156690612575565b60405180910390fd5b50505050565b600073ffffffffffffffffffffffffffffffffffffffff168273ffffffffffffffffffffffffffffffffffffffff1614156115e5576040517f08c379a00000000000000000000000000000000000000000000000000000000081526004016115dc90612695565b60405180910390fd5b6115ee81610e71565b1561162e576040517f08c379a0000000000000000000000000000000000000000000000000000000008152600401611625906125b5565b60405180910390fd5b61163a60008383611785565b6001600360008473ffffffffffffffffffffffffffffffffffffffff1673ffffffffffffffffffffffffffffffffffffffff168152602001908152602001600020600082825461168a9190612883565b92505081905550816002600083815260200190815260200160002060006101000a81548173ffffffffffffffffffffffffffffffffffffffff021916908373ffffffffffffffffffffffffffffffffffffffff160217905550808273ffffffffffffffffffffffffffffffffffffffff16600073ffffffffffffffffffffffffffffffffffffffff167fddf252ad1be2c89b69c2b068fc378daa952ba7f163c4a11628f55a4df523b3ef60405160405180910390a45050565b8060086000848152602001908152602001600020908051906020019061176a92919061194e565b505050565b6001816000016000828254019250508190555050565b505050565b60006117ab8473ffffffffffffffffffffffffffffffffffffffff16611921565b15611914578373ffffffffffffffffffffffffffffffffffffffff1663150b7a026117d4610edd565b8786866040518563ffffffff1660e01b81526004016117f694939291906124ca565b602060405180830381600087803b15801561181057600080fd5b505af192505050801561184157506040513d601f19601f8201168201806040525081019061183e9190611d4e565b60015b6118c4573d8060008114611871576040519150601f19603f3d011682016040523d82523d6000602084013e611876565b606091505b506000815114156118bc576040517f08c379a00000000000000000000000000000000000000000000000000000000081526004016118b390612575565b60405180910390fd5b805181602001fd5b63150b7a0260e01b7bffffffffffffffffffffffffffffffffffffffffffffffffffffffff1916817bffffffffffffffffffffffffffffffffffffffffffffffffffffffff191614915050611919565b600190505b949350505050565b600080823b905060008111915050919050565b604051806040016040528060008152602001606081525090565b82805461195a906129c3565b90600052602060002090601f01602090048101928261197c57600085556119c3565b82601f1061199557805160ff19168380011785556119c3565b828001600101855582156119c3579182015b828111156119c25782518255916020019190600101906119a7565b5b5090506119d091906119d4565b5090565b5b808211156119ed5760008160009055506001016119d5565b5090565b6000611a046119ff846127a1565b612770565b905082815260208101848484011115611a1c57600080fd5b611a27848285612981565b509392505050565b6000611a42611a3d846127d1565b612770565b905082815260208101848484011115611a5a57600080fd5b611a65848285612981565b509392505050565b600081359050611a7c81612adc565b92915050565b600081359050611a9181612af3565b92915050565b600081359050611aa681612b0a565b92915050565b600081519050611abb81612b0a565b92915050565b600082601f830112611ad257600080fd5b8135611ae28482602086016119f1565b91505092915050565b600082601f830112611afc57600080fd5b8135611b0c848260208601611a2f565b91505092915050565b600081359050611b2481612b21565b92915050565b600060208284031215611b3c57600080fd5b6000611b4a84828501611a6d565b91505092915050565b60008060408385031215611b6657600080fd5b6000611b7485828601611a6d565b9250506020611b8585828601611a6d565b9150509250929050565b600080600060608486031215611ba457600080fd5b6000611bb286828701611a6d565b9350506020611bc386828701611a6d565b9250506040611bd486828701611b15565b9150509250925092565b60008060008060808587031215611bf457600080fd5b6000611c0287828801611a6d565b9450506020611c1387828801611a6d565b9350506040611c2487828801611b15565b925050606085013567ffffffffffffffff811115611c4157600080fd5b611c4d87828801611ac1565b91505092959194509250565b60008060408385031215611c6c57600080fd5b6000611c7a85828601611a6d565b9250506020611c8b85828601611a82565b9150509250929050565b60008060408385031215611ca857600080fd5b6000611cb685828601611a6d565b925050602083013567ffffffffffffffff811115611cd357600080fd5b611cdf85828601611aeb565b9150509250929050565b60008060408385031215611cfc57600080fd5b6000611d0a85828601611a6d565b9250506020611d1b85828601611b15565b9150509250929050565b600060208284031215611d3757600080fd5b6000611d4584828501611a97565b91505092915050565b600060208284031215611d6057600080fd5b6000611d6e84828501611aac565b91505092915050565b600060208284031215611d8957600080fd5b6000611d9784828501611b15565b91505092915050565b6000611dac8383612454565b905092915050565b611dbd8161290d565b82525050565b6000611dce82612811565b611dd8818561283f565b935083602082028501611dea85612801565b8060005b85811015611e265784840389528151611e078582611da0565b9450611e1283612832565b925060208a01995050600181019050611dee565b50829750879550505050505092915050565b611e418161291f565b82525050565b6000611e528261281c565b611e5c8185612850565b9350611e6c818560208601612990565b611e7581612acb565b840191505092915050565b6000611e8b82612827565b611e958185612861565b9350611ea5818560208601612990565b611eae81612acb565b840191505092915050565b6000611ec482612827565b611ece8185612872565b9350611ede818560208601612990565b611ee781612acb565b840191505092915050565b6000611eff603283612872565b91507f4552433732313a207472616e7366657220746f206e6f6e20455243373231526560008301527f63656976657220696d706c656d656e74657200000000000000000000000000006020830152604082019050919050565b6000611f65602683612872565b91507f4f776e61626c653a206e6577206f776e657220697320746865207a65726f206160008301527f64647265737300000000000000000000000000000000000000000000000000006020830152604082019050919050565b6000611fcb601c83612872565b91507f4552433732313a20746f6b656e20616c7265616479206d696e746564000000006000830152602082019050919050565b600061200b602483612872565b91507f4552433732313a207472616e7366657220746f20746865207a65726f2061646460008301527f72657373000000000000000000000000000000000000000000000000000000006020830152604082019050919050565b6000612071601983612872565b91507f4552433732313a20617070726f766520746f2063616c6c6572000000000000006000830152602082019050919050565b60006120b1602c83612872565b91507f4552433732313a206f70657261746f7220717565727920666f72206e6f6e657860008301527f697374656e7420746f6b656e00000000000000000000000000000000000000006020830152604082019050919050565b6000612117603883612872565b91507f4552433732313a20617070726f76652063616c6c6572206973206e6f74206f7760008301527f6e6572206e6f7220617070726f76656420666f7220616c6c00000000000000006020830152604082019050919050565b600061217d602a83612872565b91507f4552433732313a2062616c616e636520717565727920666f7220746865207a6560008301527f726f2061646472657373000000000000000000000000000000000000000000006020830152604082019050919050565b60006121e3602983612872565b91507f4552433732313a206f776e657220717565727920666f72206e6f6e657869737460008301527f656e7420746f6b656e00000000000000000000000000000000000000000000006020830152604082019050919050565b6000612249602083612872565b91507f4552433732313a206d696e7420746f20746865207a65726f20616464726573736000830152602082019050919050565b6000612289602c83612872565b91507f4552433732313a20617070726f76656420717565727920666f72206e6f6e657860008301527f697374656e7420746f6b656e00000000000000000000000000000000000000006020830152604082019050919050565b60006122ef602083612872565b91507f4f776e61626c653a2063616c6c6572206973206e6f7420746865206f776e65726000830152602082019050919050565b600061232f602983612872565b91507f4552433732313a207472616e73666572206f6620746f6b656e2074686174206960008301527f73206e6f74206f776e00000000000000000000000000000000000000000000006020830152604082019050919050565b6000612395602183612872565b91507f4552433732313a20617070726f76616c20746f2063757272656e74206f776e6560008301527f72000000000000000000000000000000000000000000000000000000000000006020830152604082019050919050565b60006123fb603183612872565b91507f4552433732313a207472616e736665722063616c6c6572206973206e6f74206f60008301527f776e6572206e6f7220617070726f7665640000000000000000000000000000006020830152604082019050919050565b600060408301600083015161246c6000860182612491565b50602083015184820360208601526124848282611e80565b9150508091505092915050565b61249a81612977565b82525050565b6124a981612977565b82525050565b60006020820190506124c46000830184611db4565b92915050565b60006080820190506124df6000830187611db4565b6124ec6020830186611db4565b6124f960408301856124a0565b818103606083015261250b8184611e47565b905095945050505050565b600060208201905081810360008301526125308184611dc3565b905092915050565b600060208201905061254d6000830184611e38565b92915050565b6000602082019050818103600083015261256d8184611eb9565b905092915050565b6000602082019050818103600083015261258e81611ef2565b9050919050565b600060208201905081810360008301526125ae81611f58565b9050919050565b600060208201905081810360008301526125ce81611fbe565b9050919050565b600060208201905081810360008301526125ee81611ffe565b9050919050565b6000602082019050818103600083015261260e81612064565b9050919050565b6000602082019050818103600083015261262e816120a4565b9050919050565b6000602082019050818103600083015261264e8161210a565b9050919050565b6000602082019050818103600083015261266e81612170565b9050919050565b6000602082019050818103600083015261268e816121d6565b9050919050565b600060208201905081810360008301526126ae8161223c565b9050919050565b600060208201905081810360008301526126ce8161227c565b9050919050565b600060208201905081810360008301526126ee816122e2565b9050919050565b6000602082019050818103600083015261270e81612322565b9050919050565b6000602082019050818103600083015261272e81612388565b9050919050565b6000602082019050818103600083015261274e816123ee565b9050919050565b600060208201905061276a60008301846124a0565b92915050565b6000604051905081810181811067ffffffffffffffff8211171561279757612796612a9c565b5b8060405250919050565b600067ffffffffffffffff8211156127bc576127bb612a9c565b5b601f19601f8301169050602081019050919050565b600067ffffffffffffffff8211156127ec576127eb612a9c565b5b601f19601f8301169050602081019050919050565b6000819050602082019050919050565b600081519050919050565b600081519050919050565b600081519050919050565b6000602082019050919050565b600082825260208201905092915050565b600082825260208201905092915050565b600082825260208201905092915050565b600082825260208201905092915050565b600061288e82612977565b915061289983612977565b9250827fffffffffffffffffffffffffffffffffffffffffffffffffffffffffffffffff038211156128ce576128cd612a3e565b5b828201905092915050565b60006128e482612977565b91506128ef83612977565b92508282101561290257612901612a3e565b5b828203905092915050565b600061291882612957565b9050919050565b60008115159050919050565b60007fffffffff0000000000000000000000000000000000000000000000000000000082169050919050565b600073ffffffffffffffffffffffffffffffffffffffff82169050919050565b6000819050919050565b82818337600083830152505050565b60005b838110156129ae578082015181840152602081019050612993565b838111156129bd576000848401525b50505050565b600060028204905060018216806129db57607f821691505b602082108114156129ef576129ee612a6d565b5b50919050565b6000612a0082612977565b91507fffffffffffffffffffffffffffffffffffffffffffffffffffffffffffffffff821415612a3357612a32612a3e565b5b600182019050919050565b7f4e487b7100000000000000000000000000000000000000000000000000000000600052601160045260246000fd5b7f4e487b7100000000000000000000000000000000000000000000000000000000600052602260045260246000fd5b7f4e487b7100000000000000000000000000000000000000000000000000000000600052604160045260246000fd5b6000601f19601f8301169050919050565b612ae58161290d565b8114612af057600080fd5b50565b612afc8161291f565b8114612b0757600080fd5b50565b612b138161292b565b8114612b1e57600080fd5b50565b612b2a81612977565b8114612b3557600080fd5b5056fea2646970667358221220ebbcf46a419add972c05e2b800cdb29dcacf9e244dab0750d33eb86af867f52464736f6c63430008000033",
  "linkReferences": {},
  "deployedLinkReferences": {}
}